{
  "_format": "hh-sol-artifact-1",
  "contractName": "FHECounter",
  "sourceName": "contracts/FHECounter.sol",
  "abi": [
    {
      "inputs": [],
      "name": "NotSepoliaNetwork",
      "type": "error"
    },
    {
      "inputs": [],
      "name": "confidentialProtocolId",
      "outputs": [
        {
          "internalType": "uint256",
          "name": "",
          "type": "uint256"
        }
      ],
      "stateMutability": "view",
      "type": "function"
    },
    {
      "inputs": [
        {
          "internalType": "externalEuint32",
          "name": "inputEuint32",
          "type": "bytes32"
        },
        {
          "internalType": "bytes",
          "name": "inputProof",
          "type": "bytes"
        }
      ],
      "name": "decrement",
      "outputs": [],
      "stateMutability": "nonpayable",
      "type": "function"
    },
    {
      "inputs": [],
      "name": "getCount",
      "outputs": [
        {
          "internalType": "euint32",
          "name": "",
          "type": "bytes32"
        }
      ],
      "stateMutability": "view",
      "type": "function"
    },
    {
      "inputs": [
        {
          "internalType": "externalEuint32",
          "name": "inputEuint32",
          "type": "bytes32"
        },
        {
          "internalType": "bytes",
          "name": "inputProof",
          "type": "bytes"
        }
      ],
      "name": "increment",
      "outputs": [],
      "stateMutability": "nonpayable",
      "type": "function"
    }
  ],
  "bytecode": "0x608060405234801561000f575f5ffd5b504662aa36a70361014557610140610097604080516060810182525f8082526020820181905291810191909152506040805160608101825273f0ffdc93b7e186bc2f8cb3daa75d86d1930a433d81527392c920834ec8941d2c77d188936e1f7a6f49c127602082015273be0e383937d564d7ff0bc3b46c51f0bf8d5c311a9181019190915290565b80517f9e7b61f58c47dc699ac88507c4f5bb9f121c03808c5676a8078fe583e464970080546001600160a01b03199081166001600160a01b039384161790915560208301517f9e7b61f58c47dc699ac88507c4f5bb9f121c03808c5676a8078fe583e46497018054831691841691909117905560408301517f9e7b61f58c47dc699ac88507c4f5bb9f121c03808c5676a8078fe583e46497028054909216921691909117905550565b6101e4565b46617a69036101cb57610140610097604080516060810182525f808252602082018190529181019190915250604080516060810182527350157cffd6bbfa2dece204a89ec419c23ef5755d815273e3a9105a3a932253a70f126eb1e3b589c643dd24602082015273901f8942346f7ab3a01f6d7613119bca447bb0309181019190915290565b604051635815e43560e01b815260040160405180910390fd5b61075f806101f15f395ff3fe608060405234801561000f575f5ffd5b506004361061004a575f3560e01c80635941195d1461004e5780638927b03014610063578063a87d942c1461007d578063e055f8f914610084575b5f5ffd5b61006161005c366004610636565b610097565b005b61006b610104565b60405190815260200160405180910390f35b5f5461006b565b610061610092366004610636565b61012a565b5f6100d78484848080601f0160208091040260200160405190810160405280939291908181526020018383808284375f9201919091525061017792505050565b90506100e45f548261018b565b5f8190556100f1906101b9565b506100fd5f54336101c8565b5050505050565b5f4662aa36a703610116575061271190565b46617a690361012557505f1990565b505f90565b5f61016a8484848080601f0160208091040260200160405190810160405280939291908181526020018383808284375f9201919091525061017792505050565b90506100e45f54826101da565b5f61018483836004610208565b9392505050565b5f8261019d5761019a5f610328565b92505b816101ae576101ab5f610328565b91505b61018483835f610340565b5f6101c4823061043b565b5090565b5f6101d3838361043b565b5090919050565b5f826101ec576101e95f610328565b92505b816101fd576101fa5f610328565b91505b61018483835f6104c4565b7f9e7b61f58c47dc699ac88507c4f5bb9f121c03808c5676a8078fe583e46497015460405163045fc19560e11b81525f917f9e7b61f58c47dc699ac88507c4f5bb9f121c03808c5676a8078fe583e4649700916001600160a01b03909116906308bf832a906102819088903390899089906004016106cd565b6020604051808303815f875af115801561029d573d5f5f3e3d5ffd5b505050506040513d601f19601f820116820180604052508101906102c19190610727565b8154604051630f8e573b60e21b8152600481018390523360248201529193506001600160a01b031690633e395cec906044015f604051808303815f87803b15801561030a575f5ffd5b505af115801561031c573d5f5f3e3d5ffd5b50505050509392505050565b5f61033a8263ffffffff166004610579565b92915050565b5f5f82156103535750600160f81b610356565b505f5b7f9e7b61f58c47dc699ac88507c4f5bb9f121c03808c5676a8078fe583e46497015460405163022f65e760e31b815260048101879052602481018690527fff00000000000000000000000000000000000000000000000000000000000000831660448201527f9e7b61f58c47dc699ac88507c4f5bb9f121c03808c5676a8078fe583e4649700916001600160a01b03169063117b2f38906064015b6020604051808303815f875af115801561040d573d5f5f3e3d5ffd5b505050506040513d601f19601f820116820180604052508101906104319190610727565b9695505050505050565b5f7f9e7b61f58c47dc699ac88507c4f5bb9f121c03808c5676a8078fe583e46497008054604051635ca4b5b160e11b8152600481018690526001600160a01b03858116602483015292935091169063b9496b62906044015f604051808303815f87803b1580156104a9575f5ffd5b505af11580156104bb573d5f5f3e3d5ffd5b50505050505050565b5f5f82156104d75750600160f81b6104da565b505f5b7f9e7b61f58c47dc699ac88507c4f5bb9f121c03808c5676a8078fe583e4649701546040516303056db360e31b815260048101879052602481018690527fff00000000000000000000000000000000000000000000000000000000000000831660448201527f9e7b61f58c47dc699ac88507c4f5bb9f121c03808c5676a8078fe583e4649700916001600160a01b03169063182b6d98906064016103f1565b7f9e7b61f58c47dc699ac88507c4f5bb9f121c03808c5676a8078fe583e464970154604051639cd07acb60e01b81525f917f9e7b61f58c47dc699ac88507c4f5bb9f121c03808c5676a8078fe583e4649700916001600160a01b0390911690639cd07acb906105ee908790879060040161073e565b6020604051808303815f875af115801561060a573d5f5f3e3d5ffd5b505050506040513d601f19601f8201168201806040525081019061062e9190610727565b949350505050565b5f5f5f60408486031215610648575f5ffd5b83359250602084013567ffffffffffffffff811115610665575f5ffd5b8401601f81018613610675575f5ffd5b803567ffffffffffffffff81111561068b575f5ffd5b86602082840101111561069c575f5ffd5b939660209190910195509293505050565b605481106106c957634e487b7160e01b5f52602160045260245ffd5b9052565b8481526001600160a01b0384166020820152608060408201525f8351806080840152806020860160a085015e5f60a0828501015260a0601f19601f83011684010191505061071e60608301846106ad565b95945050505050565b5f60208284031215610737575f5ffd5b5051919050565b8281526040810161018460208301846106ad56fea164736f6c634300081b000a",
  "linkReferences": {},
  "deployedLinkReferences": {}
}